{
  "_format": "hh-sol-artifact-1",
  "contractName": "VoteToken",
  "sourceName": "contracts/VoteToken.sol",
  "abi": [
    {
      "inputs": [],
      "stateMutability": "nonpayable",
      "type": "constructor"
    },
    {
      "inputs": [
        {
          "internalType": "address",
          "name": "spender",
          "type": "address"
        },
        {
          "internalType": "uint256",
          "name": "allowance",
          "type": "uint256"
        },
        {
          "internalType": "uint256",
          "name": "needed",
          "type": "uint256"
        }
      ],
      "name": "ERC20InsufficientAllowance",
      "type": "error"
    },
    {
      "inputs": [
        {
          "internalType": "address",
          "name": "sender",
          "type": "address"
        },
        {
          "internalType": "uint256",
          "name": "balance",
          "type": "uint256"
        },
        {
          "internalType": "uint256",
          "name": "needed",
          "type": "uint256"
        }
      ],
      "name": "ERC20InsufficientBalance",
      "type": "error"
    },
    {
      "inputs": [
        {
          "internalType": "address",
          "name": "approver",
          "type": "address"
        }
      ],
      "name": "ERC20InvalidApprover",
      "type": "error"
    },
    {
      "inputs": [
        {
          "internalType": "address",
          "name": "receiver",
          "type": "address"
        }
      ],
      "name": "ERC20InvalidReceiver",
      "type": "error"
    },
    {
      "inputs": [
        {
          "internalType": "address",
          "name": "sender",
          "type": "address"
        }
      ],
      "name": "ERC20InvalidSender",
      "type": "error"
    },
    {
      "inputs": [
        {
          "internalType": "address",
          "name": "spender",
          "type": "address"
        }
      ],
      "name": "ERC20InvalidSpender",
      "type": "error"
    },
    {
      "inputs": [
        {
          "internalType": "address",
          "name": "owner",
          "type": "address"
        }
      ],
      "name": "OwnableInvalidOwner",
      "type": "error"
    },
    {
      "inputs": [
        {
          "internalType": "address",
          "name": "account",
          "type": "address"
        }
      ],
      "name": "OwnableUnauthorizedAccount",
      "type": "error"
    },
    {
      "anonymous": false,
      "inputs": [
        {
          "indexed": true,
          "internalType": "address",
          "name": "owner",
          "type": "address"
        },
        {
          "indexed": true,
          "internalType": "address",
          "name": "spender",
          "type": "address"
        },
        {
          "indexed": false,
          "internalType": "uint256",
          "name": "value",
          "type": "uint256"
        }
      ],
      "name": "Approval",
      "type": "event"
    },
    {
      "anonymous": false,
      "inputs": [
        {
          "indexed": true,
          "internalType": "address",
          "name": "previousOwner",
          "type": "address"
        },
        {
          "indexed": true,
          "internalType": "address",
          "name": "newOwner",
          "type": "address"
        }
      ],
      "name": "OwnershipTransferred",
      "type": "event"
    },
    {
      "anonymous": false,
      "inputs": [
        {
          "indexed": true,
          "internalType": "address",
          "name": "voter",
          "type": "address"
        },
        {
          "indexed": false,
          "internalType": "uint256",
          "name": "amount",
          "type": "uint256"
        }
      ],
      "name": "TokensBurned",
      "type": "event"
    },
    {
      "anonymous": false,
      "inputs": [
        {
          "indexed": true,
          "internalType": "address",
          "name": "from",
          "type": "address"
        },
        {
          "indexed": true,
          "internalType": "address",
          "name": "to",
          "type": "address"
        },
        {
          "indexed": false,
          "internalType": "uint256",
          "name": "value",
          "type": "uint256"
        }
      ],
      "name": "Transfer",
      "type": "event"
    },
    {
      "anonymous": false,
      "inputs": [
        {
          "indexed": true,
          "internalType": "address",
          "name": "voter",
          "type": "address"
        },
        {
          "indexed": false,
          "internalType": "uint256",
          "name": "tokensGranted",
          "type": "uint256"
        }
      ],
      "name": "VoterRegistered",
      "type": "event"
    },
    {
      "inputs": [],
      "name": "MAX_SUPPLY",
      "outputs": [
        {
          "internalType": "uint256",
          "name": "",
          "type": "uint256"
        }
      ],
      "stateMutability": "view",
      "type": "function"
    },
    {
      "inputs": [
        {
          "internalType": "address",
          "name": "owner",
          "type": "address"
        },
        {
          "internalType": "address",
          "name": "spender",
          "type": "address"
        }
      ],
      "name": "allowance",
      "outputs": [
        {
          "internalType": "uint256",
          "name": "",
          "type": "uint256"
        }
      ],
      "stateMutability": "view",
      "type": "function"
    },
    {
      "inputs": [
        {
          "internalType": "address",
          "name": "spender",
          "type": "address"
        },
        {
          "internalType": "uint256",
          "name": "value",
          "type": "uint256"
        }
      ],
      "name": "approve",
      "outputs": [
        {
          "internalType": "bool",
          "name": "",
          "type": "bool"
        }
      ],
      "stateMutability": "nonpayable",
      "type": "function"
    },
    {
      "inputs": [
        {
          "internalType": "address",
          "name": "account",
          "type": "address"
        }
      ],
      "name": "balanceOf",
      "outputs": [
        {
          "internalType": "uint256",
          "name": "",
          "type": "uint256"
        }
      ],
      "stateMutability": "view",
      "type": "function"
    },
    {
      "inputs": [
        {
          "internalType": "address[]",
          "name": "voters",
          "type": "address[]"
        },
        {
          "internalType": "uint256",
          "name": "amount",
          "type": "uint256"
        }
      ],
      "name": "batchRegisterVoters",
      "outputs": [],
      "stateMutability": "nonpayable",
      "type": "function"
    },
    {
      "inputs": [
        {
          "internalType": "uint256",
          "name": "amount",
          "type": "uint256"
        }
      ],
      "name": "burn",
      "outputs": [],
      "stateMutability": "nonpayable",
      "type": "function"
    },
    {
      "inputs": [],
      "name": "decimals",
      "outputs": [
        {
          "internalType": "uint8",
          "name": "",
          "type": "uint8"
        }
      ],
      "stateMutability": "view",
      "type": "function"
    },
    {
      "inputs": [],
      "name": "getVoterCount",
      "outputs": [
        {
          "internalType": "uint256",
          "name": "",
          "type": "uint256"
        }
      ],
      "stateMutability": "view",
      "type": "function"
    },
    {
      "inputs": [
        {
          "internalType": "address",
          "name": "voter",
          "type": "address"
        }
      ],
      "name": "isRegisteredVoter",
      "outputs": [
        {
          "internalType": "bool",
          "name": "",
          "type": "bool"
        }
      ],
      "stateMutability": "view",
      "type": "function"
    },
    {
      "inputs": [
        {
          "internalType": "address",
          "name": "to",
          "type": "address"
        },
        {
          "internalType": "uint256",
          "name": "amount",
          "type": "uint256"
        }
      ],
      "name": "mint",
      "outputs": [],
      "stateMutability": "nonpayable",
      "type": "function"
    },
    {
      "inputs": [],
      "name": "name",
      "outputs": [
        {
          "internalType": "string",
          "name": "",
          "type": "string"
        }
      ],
      "stateMutability": "view",
      "type": "function"
    },
    {
      "inputs": [],
      "name": "owner",
      "outputs": [
        {
          "internalType": "address",
          "name": "",
          "type": "address"
        }
      ],
      "stateMutability": "view",
      "type": "function"
    },
    {
      "inputs": [
        {
          "internalType": "address",
          "name": "voter",
          "type": "address"
        },
        {
          "internalType": "uint256",
          "name": "amount",
          "type": "uint256"
        }
      ],
      "name": "registerVoter",
      "outputs": [],
      "stateMutability": "nonpayable",
      "type": "function"
    },
    {
      "inputs": [
        {
          "internalType": "address",
          "name": "",
          "type": "address"
        }
      ],
      "name": "registeredVoters",
      "outputs": [
        {
          "internalType": "bool",
          "name": "",
          "type": "bool"
        }
      ],
      "stateMutability": "view",
      "type": "function"
    },
    {
      "inputs": [],
      "name": "renounceOwnership",
      "outputs": [],
      "stateMutability": "nonpayable",
      "type": "function"
    },
    {
      "inputs": [],
      "name": "symbol",
      "outputs": [
        {
          "internalType": "string",
          "name": "",
          "type": "string"
        }
      ],
      "stateMutability": "view",
      "type": "function"
    },
    {
      "inputs": [],
      "name": "totalSupply",
      "outputs": [
        {
          "internalType": "uint256",
          "name": "",
          "type": "uint256"
        }
      ],
      "stateMutability": "view",
      "type": "function"
    },
    {
      "inputs": [
        {
          "internalType": "address",
          "name": "to",
          "type": "address"
        },
        {
          "internalType": "uint256",
          "name": "value",
          "type": "uint256"
        }
      ],
      "name": "transfer",
      "outputs": [
        {
          "internalType": "bool",
          "name": "",
          "type": "bool"
        }
      ],
      "stateMutability": "nonpayable",
      "type": "function"
    },
    {
      "inputs": [
        {
          "internalType": "address",
          "name": "from",
          "type": "address"
        },
        {
          "internalType": "address",
          "name": "to",
          "type": "address"
        },
        {
          "internalType": "uint256",
          "name": "value",
          "type": "uint256"
        }
      ],
      "name": "transferFrom",
      "outputs": [
        {
          "internalType": "bool",
          "name": "",
          "type": "bool"
        }
      ],
      "stateMutability": "nonpayable",
      "type": "function"
    },
    {
      "inputs": [
        {
          "internalType": "address",
          "name": "newOwner",
          "type": "address"
        }
      ],
      "name": "transferOwnership",
      "outputs": [],
      "stateMutability": "nonpayable",
      "type": "function"
    },
    {
      "inputs": [
        {
          "internalType": "uint256",
          "name": "",
          "type": "uint256"
        }
      ],
      "name": "voterList",
      "outputs": [
        {
          "internalType": "address",
          "name": "",
          "type": "address"
        }
      ],
      "stateMutability": "view",
      "type": "function"
    }
  ],
  "bytecode": "0x60806040523480156200001157600080fd5b5033604051806040016040528060098152602001682b37ba32aa37b5b2b760b91b81525060405180604001604052806004815260200163564f544560e01b815250816003908162000063919062000335565b50600462000072828262000335565b5050506001600160a01b038116620000a557604051631e4fbdf760e01b8152600060048201526024015b60405180910390fd5b620000b081620000cd565b50620000c73369152d02c7e14af68000006200011f565b62000429565b600580546001600160a01b038381166001600160a01b0319831681179093556040519116919082907f8be0079c531659141344cd1fd0a4f28419497f9722a3daafe3b4186f6b6457e090600090a35050565b6001600160a01b0382166200014b5760405163ec442f0560e01b8152600060048201526024016200009c565b62000159600083836200015d565b5050565b6001600160a01b0383166200018c57806002600082825462000180919062000401565b90915550620002009050565b6001600160a01b03831660009081526020819052604090205481811015620001e15760405163391434e360e21b81526001600160a01b038516600482015260248101829052604481018390526064016200009c565b6001600160a01b03841660009081526020819052604090209082900390555b6001600160a01b0382166200021e576002805482900390556200023d565b6001600160a01b03821660009081526020819052604090208054820190555b816001600160a01b0316836001600160a01b03167fddf252ad1be2c89b69c2b068fc378daa952ba7f163c4a11628f55a4df523b3ef836040516200028391815260200190565b60405180910390a3505050565b634e487b7160e01b600052604160045260246000fd5b600181811c90821680620002bb57607f821691505b602082108103620002dc57634e487b7160e01b600052602260045260246000fd5b50919050565b601f8211156200033057600081815260208120601f850160051c810160208610156200030b5750805b601f850160051c820191505b818110156200032c5782815560010162000317565b5050505b505050565b81516001600160401b0381111562000351576200035162000290565b6200036981620003628454620002a6565b84620002e2565b602080601f831160018114620003a15760008415620003885750858301515b600019600386901b1c1916600185901b1785556200032c565b600085815260208120601f198616915b82811015620003d257888601518255948401946001909101908401620003b1565b5085821015620003f15787850151600019600388901b60f8161c191681555b5050505050600190811b01905550565b808201808211156200042357634e487b7160e01b600052601160045260246000fd5b92915050565b610fbc80620004396000396000f3fe608060405234801561001057600080fd5b50600436106101375760003560e01c806370a08231116100b8578063a9059cbb1161007c578063a9059cbb1461027a578063a9ff6df11461028d578063cbea81ef146102b0578063da36cffe146102c3578063dd62ed3e146102ef578063f2fde38b1461032857600080fd5b806370a082311461021d578063715018a6146102465780638da5cb5b1461024e578063924da7a71461025f57806395d89b411461027257600080fd5b8063313ce567116100ff578063313ce567146101aa57806332cb6b0c146101b957806340c10f19146101ca57806342966c68146101df57806350e2e8af146101f257600080fd5b806306fdde031461013c578063095ea7b31461015a57806311174a291461017d57806318160ddd1461018f57806323b872dd14610197575b600080fd5b61014461033b565b6040516101519190610d04565b60405180910390f35b61016d610168366004610d6e565b6103cd565b6040519015158152602001610151565b6007545b604051908152602001610151565b600254610181565b61016d6101a5366004610d98565b6103e7565b60405160128152602001610151565b61018169d3c21bcecceda100000081565b6101dd6101d8366004610d6e565b61040b565b005b6101dd6101ed366004610dd4565b610467565b610205610200366004610dd4565b6104a9565b6040516001600160a01b039091168152602001610151565b61018161022b366004610ded565b6001600160a01b031660009081526020819052604090205490565b6101dd6104d3565b6005546001600160a01b0316610205565b6101dd61026d366004610e0f565b6104e7565b610144610723565b61016d610288366004610d6e565b610732565b61016d61029b366004610ded565b60066020526000908152604090205460ff1681565b6101dd6102be366004610d6e565b610740565b61016d6102d1366004610ded565b6001600160a01b031660009081526006602052604090205460ff1690565b6101816102fd366004610e8a565b6001600160a01b03918216600090815260016020908152604080832093909416825291909152205490565b6101dd610336366004610ded565b6108f2565b60606003805461034a90610ebd565b80601f016020809104026020016040519081016040528092919081815260200182805461037690610ebd565b80156103c35780601f10610398576101008083540402835291602001916103c3565b820191906000526020600020905b8154815290600101906020018083116103a657829003601f168201915b5050505050905090565b6000336103db818585610930565b60019150505b92915050565b6000336103f5858285610942565b6104008585856109bb565b506001949350505050565b610413610a1a565b69d3c21bcecceda10000008161042860025490565b6104329190610f0d565b11156104595760405162461bcd60e51b815260040161045090610f20565b60405180910390fd5b6104638282610a47565b5050565b6104713382610a7d565b60405181815233907ffd38818f5291bf0bb3a2a48aadc06ba8757865d1dabd804585338aab3009dcb69060200160405180910390a250565b600781815481106104b957600080fd5b6000918252602090912001546001600160a01b0316905081565b6104db610a1a565b6104e56000610ab3565b565b6104ef610a1a565b60005b8281101561071d576006600085858481811061051057610510610f57565b90506020020160208101906105259190610ded565b6001600160a01b0316815260208101919091526040016000205460ff1615801561057f5750600084848381811061055e5761055e610f57565b90506020020160208101906105739190610ded565b6001600160a01b031614155b1561070b5769d3c21bcecceda10000008261059960025490565b6105a39190610f0d565b11156105c15760405162461bcd60e51b815260040161045090610f20565b6001600660008686858181106105d9576105d9610f57565b90506020020160208101906105ee9190610ded565b6001600160a01b031681526020810191909152604001600020805460ff1916911515919091179055600784848381811061062a5761062a610f57565b905060200201602081019061063f9190610ded565b81546001810183556000928352602090922090910180546001600160a01b0319166001600160a01b039092169190911790556106a184848381811061068657610686610f57565b905060200201602081019061069b9190610ded565b83610a47565b8383828181106106b3576106b3610f57565b90506020020160208101906106c89190610ded565b6001600160a01b03167ff16ce2c2236e2c6e3df646f80d657bceef4cd7f3a240c47e82adfa17a5f472418360405161070291815260200190565b60405180910390a25b8061071581610f6d565b9150506104f2565b50505050565b60606004805461034a90610ebd565b6000336103db8185856109bb565b610748610a1a565b6001600160a01b03821660009081526006602052604090205460ff16156107b15760405162461bcd60e51b815260206004820152601860248201527f566f74657220616c7265616479207265676973746572656400000000000000006044820152606401610450565b69d3c21bcecceda1000000816107c660025490565b6107d09190610f0d565b11156107ee5760405162461bcd60e51b815260040161045090610f20565b6001600160a01b03821661083c5760405162461bcd60e51b8152602060048201526015602482015274496e76616c696420766f746572206164647265737360581b6044820152606401610450565b6001600160a01b0382166000818152600660205260408120805460ff191660019081179091556007805491820181559091527fa66cc928b5edb82af9bd49922954155ab7b0942694bea4ce44661d9a8736c6880180546001600160a01b03191690911790556108ab8282610a47565b816001600160a01b03167ff16ce2c2236e2c6e3df646f80d657bceef4cd7f3a240c47e82adfa17a5f47241826040516108e691815260200190565b60405180910390a25050565b6108fa610a1a565b6001600160a01b03811661092457604051631e4fbdf760e01b815260006004820152602401610450565b61092d81610ab3565b50565b61093d8383836001610b05565b505050565b6001600160a01b0383811660009081526001602090815260408083209386168352929052205460001981101561071d57818110156109ac57604051637dc7a0d960e11b81526001600160a01b03841660048201526024810182905260448101839052606401610450565b61071d84848484036000610b05565b6001600160a01b0383166109e557604051634b637e8f60e11b815260006004820152602401610450565b6001600160a01b038216610a0f5760405163ec442f0560e01b815260006004820152602401610450565b61093d838383610bda565b6005546001600160a01b031633146104e55760405163118cdaa760e01b8152336004820152602401610450565b6001600160a01b038216610a715760405163ec442f0560e01b815260006004820152602401610450565b61046360008383610bda565b6001600160a01b038216610aa757604051634b637e8f60e11b815260006004820152602401610450565b61046382600083610bda565b600580546001600160a01b038381166001600160a01b0319831681179093556040519116919082907f8be0079c531659141344cd1fd0a4f28419497f9722a3daafe3b4186f6b6457e090600090a35050565b6001600160a01b038416610b2f5760405163e602df0560e01b815260006004820152602401610450565b6001600160a01b038316610b5957604051634a1406b160e11b815260006004820152602401610450565b6001600160a01b038085166000908152600160209081526040808320938716835292905220829055801561071d57826001600160a01b0316846001600160a01b03167f8c5be1e5ebec7d5bd14f71427d1e84f3dd0314c0f7b2291e5b200ac8c7c3b92584604051610bcc91815260200190565b60405180910390a350505050565b6001600160a01b038316610c05578060026000828254610bfa9190610f0d565b90915550610c779050565b6001600160a01b03831660009081526020819052604090205481811015610c585760405163391434e360e21b81526001600160a01b03851660048201526024810182905260448101839052606401610450565b6001600160a01b03841660009081526020819052604090209082900390555b6001600160a01b038216610c9357600280548290039055610cb2565b6001600160a01b03821660009081526020819052604090208054820190555b816001600160a01b0316836001600160a01b03167fddf252ad1be2c89b69c2b068fc378daa952ba7f163c4a11628f55a4df523b3ef83604051610cf791815260200190565b60405180910390a3505050565b600060208083528351808285015260005b81811015610d3157858101830151858201604001528201610d15565b506000604082860101526040601f19601f8301168501019250505092915050565b80356001600160a01b0381168114610d6957600080fd5b919050565b60008060408385031215610d8157600080fd5b610d8a83610d52565b946020939093013593505050565b600080600060608486031215610dad57600080fd5b610db684610d52565b9250610dc460208501610d52565b9150604084013590509250925092565b600060208284031215610de657600080fd5b5035919050565b600060208284031215610dff57600080fd5b610e0882610d52565b9392505050565b600080600060408486031215610e2457600080fd5b833567ffffffffffffffff80821115610e3c57600080fd5b818601915086601f830112610e5057600080fd5b813581811115610e5f57600080fd5b8760208260051b8501011115610e7457600080fd5b6020928301989097509590910135949350505050565b60008060408385031215610e9d57600080fd5b610ea683610d52565b9150610eb460208401610d52565b90509250929050565b600181811c90821680610ed157607f821691505b602082108103610ef157634e487b7160e01b600052602260045260246000fd5b50919050565b634e487b7160e01b600052601160045260246000fd5b808201808211156103e1576103e1610ef7565b60208082526017908201527f576f756c6420657863656564206d617820737570706c79000000000000000000604082015260600190565b634e487b7160e01b600052603260045260246000fd5b600060018201610f7f57610f7f610ef7565b506001019056fea264697066735822122034d109bdf3e55928a9b0162c14d58e2b56ef663b40908ae682ab534be935dacd64736f6c63430008140033",
  "linkReferences": {},
  "deployedLinkReferences": {}
}