{
  "_format": "hh-sol-artifact-1",
  "contractName": "VotingSystem",
  "sourceName": "contracts/VotingSystem.sol",
  "abi": [
    {
      "inputs": [
        {
          "internalType": "address",
          "name": "_voteToken",
          "type": "address"
        }
      ],
      "stateMutability": "nonpayable",
      "type": "constructor"
    },
    {
      "inputs": [
        {
          "internalType": "address",
          "name": "owner",
          "type": "address"
        }
      ],
      "name": "OwnableInvalidOwner",
      "type": "error"
    },
    {
      "inputs": [
        {
          "internalType": "address",
          "name": "account",
          "type": "address"
        }
      ],
      "name": "OwnableUnauthorizedAccount",
      "type": "error"
    },
    {
      "anonymous": false,
      "inputs": [
        {
          "indexed": true,
          "internalType": "uint256",
          "name": "electionId",
          "type": "uint256"
        },
        {
          "indexed": false,
          "internalType": "uint256",
          "name": "candidateId",
          "type": "uint256"
        },
        {
          "indexed": false,
          "internalType": "string",
          "name": "name",
          "type": "string"
        }
      ],
      "name": "CandidateAdded",
      "type": "event"
    },
    {
      "anonymous": false,
      "inputs": [
        {
          "indexed": true,
          "internalType": "uint256",
          "name": "electionId",
          "type": "uint256"
        },
        {
          "indexed": false,
          "internalType": "string",
          "name": "title",
          "type": "string"
        },
        {
          "indexed": false,
          "internalType": "uint256",
          "name": "startTime",
          "type": "uint256"
        },
        {
          "indexed": false,
          "internalType": "uint256",
          "name": "endTime",
          "type": "uint256"
        }
      ],
      "name": "ElectionCreated",
      "type": "event"
    },
    {
      "anonymous": false,
      "inputs": [
        {
          "indexed": true,
          "internalType": "uint256",
          "name": "electionId",
          "type": "uint256"
        },
        {
          "indexed": false,
          "internalType": "enum VotingSystem.ElectionStatus",
          "name": "newStatus",
          "type": "uint8"
        }
      ],
      "name": "ElectionStatusChanged",
      "type": "event"
    },
    {
      "anonymous": false,
      "inputs": [
        {
          "indexed": true,
          "internalType": "address",
          "name": "previousOwner",
          "type": "address"
        },
        {
          "indexed": true,
          "internalType": "address",
          "name": "newOwner",
          "type": "address"
        }
      ],
      "name": "OwnershipTransferred",
      "type": "event"
    },
    {
      "anonymous": false,
      "inputs": [
        {
          "indexed": false,
          "internalType": "uint256",
          "name": "newAmount",
          "type": "uint256"
        }
      ],
      "name": "TokensPerVoteUpdated",
      "type": "event"
    },
    {
      "anonymous": false,
      "inputs": [
        {
          "indexed": true,
          "internalType": "uint256",
          "name": "electionId",
          "type": "uint256"
        },
        {
          "indexed": true,
          "internalType": "address",
          "name": "voter",
          "type": "address"
        },
        {
          "indexed": false,
          "internalType": "uint256",
          "name": "candidateId",
          "type": "uint256"
        },
        {
          "indexed": false,
          "internalType": "uint256",
          "name": "tokensUsed",
          "type": "uint256"
        }
      ],
      "name": "VoteCast",
      "type": "event"
    },
    {
      "inputs": [
        {
          "internalType": "uint256",
          "name": "_electionId",
          "type": "uint256"
        },
        {
          "internalType": "string",
          "name": "_name",
          "type": "string"
        },
        {
          "internalType": "string",
          "name": "_description",
          "type": "string"
        }
      ],
      "name": "addCandidate",
      "outputs": [],
      "stateMutability": "nonpayable",
      "type": "function"
    },
    {
      "inputs": [
        {
          "internalType": "uint256",
          "name": "",
          "type": "uint256"
        },
        {
          "internalType": "uint256",
          "name": "",
          "type": "uint256"
        }
      ],
      "name": "candidates",
      "outputs": [
        {
          "internalType": "uint256",
          "name": "id",
          "type": "uint256"
        },
        {
          "internalType": "string",
          "name": "name",
          "type": "string"
        },
        {
          "internalType": "string",
          "name": "description",
          "type": "string"
        },
        {
          "internalType": "uint256",
          "name": "voteCount",
          "type": "uint256"
        }
      ],
      "stateMutability": "view",
      "type": "function"
    },
    {
      "inputs": [
        {
          "internalType": "uint256",
          "name": "_electionId",
          "type": "uint256"
        },
        {
          "internalType": "uint256",
          "name": "_candidateId",
          "type": "uint256"
        },
        {
          "internalType": "uint256",
          "name": "_tokenAmount",
          "type": "uint256"
        }
      ],
      "name": "castVote",
      "outputs": [],
      "stateMutability": "nonpayable",
      "type": "function"
    },
    {
      "inputs": [
        {
          "internalType": "string",
          "name": "_title",
          "type": "string"
        },
        {
          "internalType": "string",
          "name": "_description",
          "type": "string"
        },
        {
          "internalType": "uint256",
          "name": "_startTime",
          "type": "uint256"
        },
        {
          "internalType": "uint256",
          "name": "_endTime",
          "type": "uint256"
        }
      ],
      "name": "createElection",
      "outputs": [
        {
          "internalType": "uint256",
          "name": "",
          "type": "uint256"
        }
      ],
      "stateMutability": "nonpayable",
      "type": "function"
    },
    {
      "inputs": [],
      "name": "electionCount",
      "outputs": [
        {
          "internalType": "uint256",
          "name": "",
          "type": "uint256"
        }
      ],
      "stateMutability": "view",
      "type": "function"
    },
    {
      "inputs": [
        {
          "internalType": "uint256",
          "name": "",
          "type": "uint256"
        }
      ],
      "name": "elections",
      "outputs": [
        {
          "internalType": "uint256",
          "name": "id",
          "type": "uint256"
        },
        {
          "internalType": "string",
          "name": "title",
          "type": "string"
        },
        {
          "internalType": "string",
          "name": "description",
          "type": "string"
        },
        {
          "internalType": "uint256",
          "name": "startTime",
          "type": "uint256"
        },
        {
          "internalType": "uint256",
          "name": "endTime",
          "type": "uint256"
        },
        {
          "internalType": "enum VotingSystem.ElectionStatus",
          "name": "status",
          "type": "uint8"
        },
        {
          "internalType": "uint256",
          "name": "candidateCount",
          "type": "uint256"
        },
        {
          "internalType": "uint256",
          "name": "totalVotesCast",
          "type": "uint256"
        },
        {
          "internalType": "uint256",
          "name": "totalTokensUsed",
          "type": "uint256"
        },
        {
          "internalType": "address",
          "name": "creator",
          "type": "address"
        }
      ],
      "stateMutability": "view",
      "type": "function"
    },
    {
      "inputs": [
        {
          "internalType": "uint256",
          "name": "_electionId",
          "type": "uint256"
        }
      ],
      "name": "endElection",
      "outputs": [],
      "stateMutability": "nonpayable",
      "type": "function"
    },
    {
      "inputs": [
        {
          "internalType": "uint256",
          "name": "_electionId",
          "type": "uint256"
        }
      ],
      "name": "getAllCandidates",
      "outputs": [
        {
          "internalType": "uint256[]",
          "name": "ids",
          "type": "uint256[]"
        },
        {
          "internalType": "string[]",
          "name": "names",
          "type": "string[]"
        },
        {
          "internalType": "uint256[]",
          "name": "voteCounts",
          "type": "uint256[]"
        }
      ],
      "stateMutability": "view",
      "type": "function"
    },
    {
      "inputs": [
        {
          "internalType": "uint256",
          "name": "_electionId",
          "type": "uint256"
        },
        {
          "internalType": "uint256",
          "name": "_candidateId",
          "type": "uint256"
        }
      ],
      "name": "getCandidate",
      "outputs": [
        {
          "internalType": "string",
          "name": "name",
          "type": "string"
        },
        {
          "internalType": "string",
          "name": "description",
          "type": "string"
        },
        {
          "internalType": "uint256",
          "name": "voteCount",
          "type": "uint256"
        }
      ],
      "stateMutability": "view",
      "type": "function"
    },
    {
      "inputs": [
        {
          "internalType": "uint256",
          "name": "_electionId",
          "type": "uint256"
        }
      ],
      "name": "getElection",
      "outputs": [
        {
          "internalType": "string",
          "name": "title",
          "type": "string"
        },
        {
          "internalType": "string",
          "name": "description",
          "type": "string"
        },
        {
          "internalType": "uint256",
          "name": "startTime",
          "type": "uint256"
        },
        {
          "internalType": "uint256",
          "name": "endTime",
          "type": "uint256"
        },
        {
          "internalType": "enum VotingSystem.ElectionStatus",
          "name": "status",
          "type": "uint8"
        },
        {
          "internalType": "uint256",
          "name": "candidateCount",
          "type": "uint256"
        },
        {
          "internalType": "uint256",
          "name": "totalVotesCast",
          "type": "uint256"
        },
        {
          "internalType": "uint256",
          "name": "totalTokensUsed",
          "type": "uint256"
        }
      ],
      "stateMutability": "view",
      "type": "function"
    },
    {
      "inputs": [
        {
          "internalType": "uint256",
          "name": "_electionId",
          "type": "uint256"
        }
      ],
      "name": "getWinner",
      "outputs": [
        {
          "internalType": "uint256",
          "name": "winnerId",
          "type": "uint256"
        },
        {
          "internalType": "string",
          "name": "winnerName",
          "type": "string"
        },
        {
          "internalType": "uint256",
          "name": "winnerVotes",
          "type": "uint256"
        }
      ],
      "stateMutability": "view",
      "type": "function"
    },
    {
      "inputs": [
        {
          "internalType": "uint256",
          "name": "",
          "type": "uint256"
        },
        {
          "internalType": "address",
          "name": "",
          "type": "address"
        }
      ],
      "name": "hasVoted",
      "outputs": [
        {
          "internalType": "bool",
          "name": "",
          "type": "bool"
        }
      ],
      "stateMutability": "view",
      "type": "function"
    },
    {
      "inputs": [
        {
          "internalType": "uint256",
          "name": "_electionId",
          "type": "uint256"
        },
        {
          "internalType": "address",
          "name": "_voter",
          "type": "address"
        }
      ],
      "name": "hasVoterVoted",
      "outputs": [
        {
          "internalType": "bool",
          "name": "",
          "type": "bool"
        }
      ],
      "stateMutability": "view",
      "type": "function"
    },
    {
      "inputs": [],
      "name": "owner",
      "outputs": [
        {
          "internalType": "address",
          "name": "",
          "type": "address"
        }
      ],
      "stateMutability": "view",
      "type": "function"
    },
    {
      "inputs": [],
      "name": "renounceOwnership",
      "outputs": [],
      "stateMutability": "nonpayable",
      "type": "function"
    },
    {
      "inputs": [
        {
          "internalType": "uint256",
          "name": "_amount",
          "type": "uint256"
        }
      ],
      "name": "setTokensPerVote",
      "outputs": [],
      "stateMutability": "nonpayable",
      "type": "function"
    },
    {
      "inputs": [
        {
          "internalType": "uint256",
          "name": "_electionId",
          "type": "uint256"
        }
      ],
      "name": "startElection",
      "outputs": [],
      "stateMutability": "nonpayable",
      "type": "function"
    },
    {
      "inputs": [],
      "name": "tokensPerVote",
      "outputs": [
        {
          "internalType": "uint256",
          "name": "",
          "type": "uint256"
        }
      ],
      "stateMutability": "view",
      "type": "function"
    },
    {
      "inputs": [
        {
          "internalType": "address",
          "name": "newOwner",
          "type": "address"
        }
      ],
      "name": "transferOwnership",
      "outputs": [],
      "stateMutability": "nonpayable",
      "type": "function"
    },
    {
      "inputs": [],
      "name": "voteToken",
      "outputs": [
        {
          "internalType": "contract VoteToken",
          "name": "",
          "type": "address"
        }
      ],
      "stateMutability": "view",
      "type": "function"
    },
    {
      "inputs": [
        {
          "internalType": "uint256",
          "name": "",
          "type": "uint256"
        },
        {
          "internalType": "address",
          "name": "",
          "type": "address"
        }
      ],
      "name": "voterChoice",
      "outputs": [
        {
          "internalType": "uint256",
          "name": "",
          "type": "uint256"
        }
      ],
      "stateMutability": "view",
      "type": "function"
    },
    {
      "inputs": [
        {
          "internalType": "uint256",
          "name": "",
          "type": "uint256"
        },
        {
          "internalType": "address",
          "name": "",
          "type": "address"
        }
      ],
      "name": "voterTokensUsed",
      "outputs": [
        {
          "internalType": "uint256",
          "name": "",
          "type": "uint256"
        }
      ],
      "stateMutability": "view",
      "type": "function"
    }
  ],
  "bytecode": "0x6080604052670de0b6b3a76400006003553480156200001d57600080fd5b506040516200221d3803806200221d8339810160408190526200004091620000e9565b33806200006757604051631e4fbdf760e01b81526000600482015260240160405180910390fd5b620000728162000099565b50600180546001600160a01b0319166001600160a01b03929092169190911790556200011b565b600080546001600160a01b038381166001600160a01b0319831681178455604051919092169283917f8be0079c531659141344cd1fd0a4f28419497f9722a3daafe3b4186f6b6457e09190a35050565b600060208284031215620000fc57600080fd5b81516001600160a01b03811681146200011457600080fd5b9392505050565b6120f2806200012b6000396000f3fe608060405234801561001057600080fd5b50600436106101425760003560e01c80637ad36e84116100b85780639c98bcbb1161007c5780639c98bcbb146103225780639d71077714610335578063a0d96f0c1461035c578063e6c62efc1461036f578063f2fde38b14610382578063f9ded6461461039557600080fd5b80637ad36e84146102c95780637de14242146102dc5780638789e3f3146102ff5780638da5cb5b14610308578063997d28301461031957600080fd5b8063514771411161010a578063514771411461020e57806353da8193146102475780635be5e3ec146102725780635e6fef01146102855780636d32dc4b146102ae578063715018a6146102c157600080fd5b8063054cd53214610147578063160d66ae1461015c5780634129b2c91461018c57806343859632146101ae5780634bd46448146101ec575b600080fd5b61015a610155366004611924565b6103b7565b005b60015461016f906001600160a01b031681565b6040516001600160a01b0390911681526020015b60405180910390f35b61019f61019a366004611924565b610448565b60405161018393929190611983565b6101dc6101bc3660046119c8565b600660209081526000928352604080842090915290825290205460ff1681565b6040519015158152602001610183565b6101ff6101fa3660046119f4565b6105e5565b60405161018393929190611a16565b61023961021c3660046119c8565b600760209081526000928352604080842090915290825290205481565b604051908152602001610183565b6102396102553660046119c8565b600860209081526000928352604080842090915290825290205481565b61015a610280366004611a4c565b610744565b610298610293366004611924565b610c17565b6040516101839a99989796959493929190611ab0565b61015a6102bc366004611924565b610d83565b61015a610ecc565b6102396102d7366004611bd0565b610ee0565b6102ef6102ea3660046119f4565b6110ea565b6040516101839493929190611c44565b61023960035481565b6000546001600160a01b031661016f565b61023960025481565b61015a610330366004611924565b61122e565b610348610343366004611924565b61130f565b604051610183989796959493929190611c81565b6101dc61036a3660046119c8565b611499565b61015a61037d366004611ce4565b6114c6565b61015a610390366004611d51565b611634565b6103a86103a3366004611924565b611672565b60405161018393929190611dae565b6103bf6118a7565b6000811161040d5760405162461bcd60e51b815260206004820152601660248201527504d7573742062652067726561746572207468616e20360541b60448201526064015b60405180910390fd5b60038190556040518181527f22cd2d4ca8cff76f254d3e6e82cdc48f7fd4e534a1a46b05572217d48a300d689060200160405180910390a150565b600081815260046020526040812060609082906002600582015460ff16600281111561047657610476611a78565b146104bc5760405162461bcd60e51b8152602060048201526016602482015275115b1958dd1a5bdb881a185cc81b9bdd08195b99195960521b6044820152606401610404565b60008060015b8360060154811161052657600088815260056020908152604080832084845290915290206003015483101561051457600088815260056020908152604080832084845290915290206003015492509050805b8061051e81611e49565b9150506104c2565b506000878152600560209081526040808320848452909152902060010180548291908490829061055590611e62565b80601f016020809104026020016040519081016040528092919081815260200182805461058190611e62565b80156105ce5780601f106105a3576101008083540402835291602001916105ce565b820191906000526020600020905b8154815290600101906020018083116105b157829003601f168201915b505050505091509550955095505050509193909250565b60608060008060056000878152602001908152602001600020600086815260200190815260200160002090508060010181600201826003015482805461062a90611e62565b80601f016020809104026020016040519081016040528092919081815260200182805461065690611e62565b80156106a35780601f10610678576101008083540402835291602001916106a3565b820191906000526020600020905b81548152906001019060200180831161068657829003601f168201915b505050505092508180546106b690611e62565b80601f01602080910402602001604051908101604052809291908181526020018280546106e290611e62565b801561072f5780601f106107045761010080835404028352916020019161072f565b820191906000526020600020905b81548152906001019060200180831161071257829003601f168201915b50505050509150935093509350509250925092565b600083815260046020526040812080549091036107735760405162461bcd60e51b815260040161040490611e9c565b6001600582015460ff16600281111561078e5761078e611a78565b146107d45760405162461bcd60e51b8152602060048201526016602482015275456c656374696f6e206973206e6f742061637469766560501b6044820152606401610404565b600084815260066020908152604080832033845290915290205460ff161561083e5760405162461bcd60e51b815260206004820152601e60248201527f416c726561647920766f74656420696e207468697320656c656374696f6e00006044820152606401610404565b600083118015610852575080600601548311155b6108925760405162461bcd60e51b8152602060048201526011602482015270496e76616c69642063616e64696461746560781b6044820152606401610404565b6003548210156108e45760405162461bcd60e51b815260206004820152601c60248201527f496e73756666696369656e7420746f6b656e7320666f7220766f7465000000006044820152606401610404565b6001546040516370a0823160e01b815233600482015283916001600160a01b0316906370a0823190602401602060405180830381865afa15801561092c573d6000803e3d6000fd5b505050506040513d601f19601f820116820180604052508101906109509190611ed3565b101561099e5760405162461bcd60e51b815260206004820152601a60248201527f496e73756666696369656e7420746f6b656e2062616c616e63650000000000006044820152606401610404565b60015460405163a9ff6df160e01b81523360048201526001600160a01b039091169063a9ff6df190602401602060405180830381865afa1580156109e6573d6000803e3d6000fd5b505050506040513d601f19601f82011682018060405250810190610a0a9190611eec565b610a4f5760405162461bcd60e51b81526020600482015260166024820152752737ba1030903932b3b4b9ba32b932b2103b37ba32b960511b6044820152606401610404565b6001546040516323b872dd60e01b8152336004820152306024820152604481018490526001600160a01b03909116906323b872dd906064016020604051808303816000875af1158015610aa6573d6000803e3d6000fd5b505050506040513d601f19601f82011682018060405250810190610aca9190611eec565b610b0e5760405162461bcd60e51b8152602060048201526015602482015274151bdad95b881d1c985b9cd9995c8819985a5b1959605a1b6044820152606401610404565b600060035483610b1e9190611f0e565b600086815260066020908152604080832033808552908352818420805460ff1916600117905589845260078352818420818552835281842089905589845260088352818420908452825280832087905588835260058252808320888452909152812060030180549293508392909190610b98908490611f30565b9250508190555080826007016000828254610bb39190611f30565b9250508190555082826008016000828254610bce9190611f30565b90915550506040805185815260208101859052339187917f0271f53eebbe20450d9578f28ec279231556c34545b30e2278d754ffd39cd63c910160405180910390a35050505050565b60046020526000908152604090208054600182018054919291610c3990611e62565b80601f0160208091040260200160405190810160405280929190818152602001828054610c6590611e62565b8015610cb25780601f10610c8757610100808354040283529160200191610cb2565b820191906000526020600020905b815481529060010190602001808311610c9557829003601f168201915b505050505090806002018054610cc790611e62565b80601f0160208091040260200160405190810160405280929190818152602001828054610cf390611e62565b8015610d405780601f10610d1557610100808354040283529160200191610d40565b820191906000526020600020905b815481529060010190602001808311610d2357829003601f168201915b505050506003830154600484015460058501546006860154600787015460088801546009909801549697949693955060ff9092169390926001600160a01b03168a565b610d8b6118a7565b60008181526004602052604081208054909103610dba5760405162461bcd60e51b815260040161040490611e9c565b6000600582015460ff166002811115610dd557610dd5611a78565b14610e225760405162461bcd60e51b815260206004820152601a60248201527f456c656374696f6e2063616e6e6f7420626520737461727465640000000000006044820152606401610404565b600281600601541015610e775760405162461bcd60e51b815260206004820152601a60248201527f4e656564206174206c6561737420322063616e646964617465730000000000006044820152606401610404565b60058101805460ff1916600190811790915542600383015560405183917ffc109e0cb0828ec465b9741a17f547df3009f4e626af452175fbdbf0b1b50fef91610ec09190611f43565b60405180910390a25050565b610ed46118a7565b610ede60006118d4565b565b6000610eea6118a7565b818310610f2e5760405162461bcd60e51b8152602060048201526012602482015271496e76616c69642074696d652072616e676560701b6044820152606401610404565b42831015610f7e5760405162461bcd60e51b815260206004820181905260248201527f53746172742074696d65206d75737420626520696e20746865206675747572656044820152606401610404565b60028054906000610f8e83611e49565b9091555050600254604080516101408101825282815260208082018981528284018990526060830188905260808301879052600060a0840181905260c0840181905260e08401819052610100840181905233610120850152858152600490925292902081518155915190919060018201906110099082611fa0565b506040820151600282019061101e9082611fa0565b50606082015160038201556080820151600482015560a082015160058201805460ff1916600183600281111561105657611056611a78565b021790555060c0820151600682015560e08201516007820155610100820151600882015561012090910151600990910180546001600160a01b0319166001600160a01b0390921691909117905560405181907fe7a0aae5d733e07e246dea86213a1ac1b0aa8554bde889bb75c12752f44e53d9906110d990899088908890612060565b60405180910390a295945050505050565b60056020908152600092835260408084209091529082529020805460018201805491929161111790611e62565b80601f016020809104026020016040519081016040528092919081815260200182805461114390611e62565b80156111905780601f1061116557610100808354040283529160200191611190565b820191906000526020600020905b81548152906001019060200180831161117357829003601f168201915b5050505050908060020180546111a590611e62565b80601f01602080910402602001604051908101604052809291908181526020018280546111d190611e62565b801561121e5780601f106111f35761010080835404028352916020019161121e565b820191906000526020600020905b81548152906001019060200180831161120157829003601f168201915b5050505050908060030154905084565b6112366118a7565b600081815260046020526040812080549091036112655760405162461bcd60e51b815260040161040490611e9c565b6001600582015460ff16600281111561128057611280611a78565b146112c65760405162461bcd60e51b8152602060048201526016602482015275456c656374696f6e206973206e6f742061637469766560501b6044820152606401610404565b60058101805460ff1916600290811790915542600483015560405183917ffc109e0cb0828ec465b9741a17f547df3009f4e626af452175fbdbf0b1b50fef91610ec09190611f43565b6060806000806000806000806000600460008b815260200190815260200160002090508060010181600201826003015483600401548460050160009054906101000a900460ff1685600601548660070154876008015487805461137190611e62565b80601f016020809104026020016040519081016040528092919081815260200182805461139d90611e62565b80156113ea5780601f106113bf576101008083540402835291602001916113ea565b820191906000526020600020905b8154815290600101906020018083116113cd57829003601f168201915b505050505097508680546113fd90611e62565b80601f016020809104026020016040519081016040528092919081815260200182805461142990611e62565b80156114765780601f1061144b57610100808354040283529160200191611476565b820191906000526020600020905b81548152906001019060200180831161145957829003601f168201915b505050505096509850985098509850985098509850985050919395975091939597565b60008281526006602090815260408083206001600160a01b038516845290915290205460ff165b92915050565b6114ce6118a7565b600083815260046020526040812080549091036114fd5760405162461bcd60e51b815260040161040490611e9c565b6000600582015460ff16600281111561151857611518611a78565b146115655760405162461bcd60e51b815260206004820152601860248201527f456c656374696f6e20616c7265616479207374617274656400000000000000006044820152606401610404565b60068101805490600061157783611e49565b909155505060068101546040805160808101825282815260208082018781528284018790526000606084018190528981526005835284812086825290925292902081518155915190919060018201906115d09082611fa0565b50604082015160028201906115e59082611fa0565b5060608201518160030155905050847fed8911b3df733b7d5f75724158e54478ea12e30f49c9d31b5261879f5b76586f8286604051611625929190612085565b60405180910390a25050505050565b61163c6118a7565b6001600160a01b03811661166657604051631e4fbdf760e01b815260006004820152602401610404565b61166f816118d4565b50565b6000818152600460205260409020600681015460609182918291908067ffffffffffffffff8111156116a6576116a6611b2d565b6040519080825280602002602001820160405280156116cf578160200160208202803683370190505b5094508067ffffffffffffffff8111156116eb576116eb611b2d565b60405190808252806020026020018201604052801561171e57816020015b60608152602001906001900390816117095790505b5093508067ffffffffffffffff81111561173a5761173a611b2d565b604051908082528060200260200182016040528015611763578160200160208202803683370190505b50925060005b8181101561189d5760008781526005602052604081208161178b846001611f30565b8152602001908152602001600020905080600001548783815181106117b2576117b26120a6565b6020026020010181815250508060010180546117cd90611e62565b80601f01602080910402602001604051908101604052809291908181526020018280546117f990611e62565b80156118465780601f1061181b57610100808354040283529160200191611846565b820191906000526020600020905b81548152906001019060200180831161182957829003601f168201915b505050505086838151811061185d5761185d6120a6565b6020026020010181905250806003015485838151811061187f5761187f6120a6565b6020908102919091010152508061189581611e49565b915050611769565b5050509193909250565b6000546001600160a01b03163314610ede5760405163118cdaa760e01b8152336004820152602401610404565b600080546001600160a01b038381166001600160a01b0319831681178455604051919092169283917f8be0079c531659141344cd1fd0a4f28419497f9722a3daafe3b4186f6b6457e09190a35050565b60006020828403121561193657600080fd5b5035919050565b6000815180845260005b8181101561196357602081850181015186830182015201611947565b506000602082860101526020601f19601f83011685010191505092915050565b83815260606020820152600061199c606083018561193d565b9050826040830152949350505050565b80356001600160a01b03811681146119c357600080fd5b919050565b600080604083850312156119db57600080fd5b823591506119eb602084016119ac565b90509250929050565b60008060408385031215611a0757600080fd5b50508035926020909101359150565b606081526000611a29606083018661193d565b8281036020840152611a3b818661193d565b915050826040830152949350505050565b600080600060608486031215611a6157600080fd5b505081359360208301359350604090920135919050565b634e487b7160e01b600052602160045260246000fd5b60038110611aac57634e487b7160e01b600052602160045260246000fd5b9052565b60006101408c8352806020840152611aca8184018d61193d565b90508281036040840152611ade818c61193d565b915050886060830152876080830152611afa60a0830188611a8e565b60c082019590955260e08101939093526101008301919091526001600160a01b0316610120909101529695505050505050565b634e487b7160e01b600052604160045260246000fd5b600082601f830112611b5457600080fd5b813567ffffffffffffffff80821115611b6f57611b6f611b2d565b604051601f8301601f19908116603f01168101908282118183101715611b9757611b97611b2d565b81604052838152866020858801011115611bb057600080fd5b836020870160208301376000602085830101528094505050505092915050565b60008060008060808587031215611be657600080fd5b843567ffffffffffffffff80821115611bfe57600080fd5b611c0a88838901611b43565b95506020870135915080821115611c2057600080fd5b50611c2d87828801611b43565b949794965050505060408301359260600135919050565b848152608060208201526000611c5d608083018661193d565b8281036040840152611c6f818661193d565b91505082606083015295945050505050565b6000610100808352611c958184018c61193d565b90508281036020840152611ca9818b61193d565b915050876040830152866060830152611cc56080830187611a8e565b8460a08301528360c08301528260e08301529998505050505050505050565b600080600060608486031215611cf957600080fd5b83359250602084013567ffffffffffffffff80821115611d1857600080fd5b611d2487838801611b43565b93506040860135915080821115611d3a57600080fd5b50611d4786828701611b43565b9150509250925092565b600060208284031215611d6357600080fd5b611d6c826119ac565b9392505050565b600081518084526020808501945080840160005b83811015611da357815187529582019590820190600101611d87565b509495945050505050565b606081526000611dc16060830186611d73565b6020838203818501528186518084528284019150828160051b85010183890160005b83811015611e1157601f19878403018552611dff83835161193d565b94860194925090850190600101611de3565b50508681036040880152611e258189611d73565b9a9950505050505050505050565b634e487b7160e01b600052601160045260246000fd5b600060018201611e5b57611e5b611e33565b5060010190565b600181811c90821680611e7657607f821691505b602082108103611e9657634e487b7160e01b600052602260045260246000fd5b50919050565b60208082526017908201527f456c656374696f6e20646f6573206e6f74206578697374000000000000000000604082015260600190565b600060208284031215611ee557600080fd5b5051919050565b600060208284031215611efe57600080fd5b81518015158114611d6c57600080fd5b600082611f2b57634e487b7160e01b600052601260045260246000fd5b500490565b808201808211156114c0576114c0611e33565b602081016114c08284611a8e565b601f821115611f9b57600081815260208120601f850160051c81016020861015611f785750805b601f850160051c820191505b81811015611f9757828155600101611f84565b5050505b505050565b815167ffffffffffffffff811115611fba57611fba611b2d565b611fce81611fc88454611e62565b84611f51565b602080601f8311600181146120035760008415611feb5750858301515b600019600386901b1c1916600185901b178555611f97565b600085815260208120601f198616915b8281101561203257888601518255948401946001909101908401612013565b50858210156120505787850151600019600388901b60f8161c191681555b5050505050600190811b01905550565b606081526000612073606083018661193d565b60208301949094525060400152919050565b82815260406020820152600061209e604083018461193d565b949350505050565b634e487b7160e01b600052603260045260246000fdfea26469706673582212203dae6067afba8ed8c5abc228c930a66b4da97a7ba7d8c227931af7d73429334064736f6c63430008140033",
  "linkReferences": {},
  "deployedLinkReferences": {}
}